{
    "contractName": "AirdropHouses",
    "abi": [
        {
            "inputs": [],
            "stateMutability": "nonpayable",
            "type": "constructor"
        },
        {
            "anonymous": false,
            "inputs": [
                {
                    "indexed": true,
                    "internalType": "address",
                    "name": "owner",
                    "type": "address"
                },
                {
                    "indexed": true,
                    "internalType": "address",
                    "name": "approved",
                    "type": "address"
                },
                {
                    "indexed": true,
                    "internalType": "uint256",
                    "name": "tokenId",
                    "type": "uint256"
                }
            ],
            "name": "Approval",
            "type": "event"
        },
        {
            "anonymous": false,
            "inputs": [
                {
                    "indexed": true,
                    "internalType": "address",
                    "name": "owner",
                    "type": "address"
                },
                {
                    "indexed": true,
                    "internalType": "address",
                    "name": "operator",
                    "type": "address"
                },
                {
                    "indexed": false,
                    "internalType": "bool",
                    "name": "approved",
                    "type": "bool"
                }
            ],
            "name": "ApprovalForAll",
            "type": "event"
        },
        {
            "anonymous": false,
            "inputs": [
                {
                    "indexed": true,
                    "internalType": "address",
                    "name": "_to",
                    "type": "address"
                },
                {
                    "indexed": false,
                    "internalType": "uint256",
                    "name": "_number",
                    "type": "uint256"
                }
            ],
            "name": "MintNFT",
            "type": "event"
        },
        {
            "anonymous": false,
            "inputs": [
                {
                    "indexed": true,
                    "internalType": "address",
                    "name": "previousOwner",
                    "type": "address"
                },
                {
                    "indexed": true,
                    "internalType": "address",
                    "name": "newOwner",
                    "type": "address"
                }
            ],
            "name": "OwnershipTransferred",
            "type": "event"
        },
        {
            "anonymous": false,
            "inputs": [
                {
                    "indexed": true,
                    "internalType": "address",
                    "name": "from",
                    "type": "address"
                },
                {
                    "indexed": true,
                    "internalType": "address",
                    "name": "to",
                    "type": "address"
                },
                {
                    "indexed": true,
                    "internalType": "uint256",
                    "name": "tokenId",
                    "type": "uint256"
                }
            ],
            "name": "Transfer",
            "type": "event"
        },
        {
            "anonymous": false,
            "inputs": [
                {
                    "indexed": false,
                    "internalType": "uint256",
                    "name": "_saleMode",
                    "type": "uint256"
                }
            ],
            "name": "WhitelistModeChanged",
            "type": "event"
        },
        {
            "inputs": [
                {
                    "internalType": "address",
                    "name": "to",
                    "type": "address"
                },
                {
                    "internalType": "uint256",
                    "name": "tokenId",
                    "type": "uint256"
                }
            ],
            "name": "approve",
            "outputs": [],
            "stateMutability": "nonpayable",
            "type": "function"
        },
        {
            "inputs": [
                {
                    "internalType": "address",
                    "name": "owner",
                    "type": "address"
                }
            ],
            "name": "balanceOf",
            "outputs": [
                {
                    "internalType": "uint256",
                    "name": "",
                    "type": "uint256"
                }
            ],
            "stateMutability": "view",
            "type": "function"
        },
        {
            "inputs": [],
            "name": "count",
            "outputs": [
                {
                    "internalType": "uint256",
                    "name": "",
                    "type": "uint256"
                }
            ],
            "stateMutability": "view",
            "type": "function"
        },
        {
            "inputs": [
                {
                    "internalType": "uint256",
                    "name": "tokenId",
                    "type": "uint256"
                }
            ],
            "name": "getApproved",
            "outputs": [
                {
                    "internalType": "address",
                    "name": "",
                    "type": "address"
                }
            ],
            "stateMutability": "view",
            "type": "function"
        },
        {
            "inputs": [
                {
                    "internalType": "uint256",
                    "name": "blockTimestamp",
                    "type": "uint256"
                }
            ],
            "name": "getLeftPresale",
            "outputs": [
                {
                    "internalType": "uint256",
                    "name": "",
                    "type": "uint256"
                }
            ],
            "stateMutability": "view",
            "type": "function"
        },
        {
            "inputs": [
                {
                    "internalType": "address",
                    "name": "owner",
                    "type": "address"
                },
                {
                    "internalType": "address",
                    "name": "operator",
                    "type": "address"
                }
            ],
            "name": "isApprovedForAll",
            "outputs": [
                {
                    "internalType": "bool",
                    "name": "",
                    "type": "bool"
                }
            ],
            "stateMutability": "view",
            "type": "function"
        },
        {
            "inputs": [],
            "name": "name",
            "outputs": [
                {
                    "internalType": "string",
                    "name": "",
                    "type": "string"
                }
            ],
            "stateMutability": "view",
            "type": "function"
        },
        {
            "inputs": [],
            "name": "owner",
            "outputs": [
                {
                    "internalType": "address",
                    "name": "",
                    "type": "address"
                }
            ],
            "stateMutability": "view",
            "type": "function"
        },
        {
            "inputs": [
                {
                    "internalType": "uint256",
                    "name": "tokenId",
                    "type": "uint256"
                }
            ],
            "name": "ownerOf",
            "outputs": [
                {
                    "internalType": "address",
                    "name": "",
                    "type": "address"
                }
            ],
            "stateMutability": "view",
            "type": "function"
        },
        {
            "inputs": [
                {
                    "internalType": "address",
                    "name": "recipiant",
                    "type": "address"
                },
                {
                    "internalType": "uint256",
                    "name": "number",
                    "type": "uint256"
                }
            ],
            "name": "payToMint",
            "outputs": [],
            "stateMutability": "payable",
            "type": "function"
        },
        {
            "inputs": [
                {
                    "internalType": "address",
                    "name": "recipiant",
                    "type": "address"
                },
                {
                    "internalType": "bytes32[]",
                    "name": "proof",
                    "type": "bytes32[]"
                },
                {
                    "internalType": "uint256",
                    "name": "number",
                    "type": "uint256"
                }
            ],
            "name": "payToWhiteMint",
            "outputs": [],
            "stateMutability": "payable",
            "type": "function"
        },
        {
            "inputs": [],
            "name": "price",
            "outputs": [
                {
                    "internalType": "uint256",
                    "name": "",
                    "type": "uint256"
                }
            ],
            "stateMutability": "view",
            "type": "function"
        },
        {
            "inputs": [],
            "name": "renounceOwnership",
            "outputs": [],
            "stateMutability": "nonpayable",
            "type": "function"
        },
        {
            "inputs": [
                {
                    "internalType": "address",
                    "name": "to",
                    "type": "address"
                },
                {
                    "internalType": "uint256",
                    "name": "number",
                    "type": "uint256"
                }
            ],
            "name": "safeMint",
            "outputs": [],
            "stateMutability": "nonpayable",
            "type": "function"
        },
        {
            "inputs": [
                {
                    "internalType": "address",
                    "name": "from",
                    "type": "address"
                },
                {
                    "internalType": "address",
                    "name": "to",
                    "type": "address"
                },
                {
                    "internalType": "uint256",
                    "name": "tokenId",
                    "type": "uint256"
                }
            ],
            "name": "safeTransferFrom",
            "outputs": [],
            "stateMutability": "nonpayable",
            "type": "function"
        },
        {
            "inputs": [
                {
                    "internalType": "address",
                    "name": "from",
                    "type": "address"
                },
                {
                    "internalType": "address",
                    "name": "to",
                    "type": "address"
                },
                {
                    "internalType": "uint256",
                    "name": "tokenId",
                    "type": "uint256"
                },
                {
                    "internalType": "bytes",
                    "name": "_data",
                    "type": "bytes"
                }
            ],
            "name": "safeTransferFrom",
            "outputs": [],
            "stateMutability": "nonpayable",
            "type": "function"
        },
        {
            "inputs": [],
            "name": "saleMode",
            "outputs": [
                {
                    "internalType": "uint256",
                    "name": "",
                    "type": "uint256"
                }
            ],
            "stateMutability": "view",
            "type": "function"
        },
        {
            "inputs": [
                {
                    "internalType": "address",
                    "name": "operator",
                    "type": "address"
                },
                {
                    "internalType": "bool",
                    "name": "approved",
                    "type": "bool"
                }
            ],
            "name": "setApprovalForAll",
            "outputs": [],
            "stateMutability": "nonpayable",
            "type": "function"
        },
        {
            "inputs": [
                {
                    "internalType": "uint256",
                    "name": "mode",
                    "type": "uint256"
                }
            ],
            "name": "setWhiteListMode",
            "outputs": [],
            "stateMutability": "nonpayable",
            "type": "function"
        },
        {
            "inputs": [
                {
                    "internalType": "bytes32",
                    "name": "root",
                    "type": "bytes32"
                }
            ],
            "name": "setWhitelistRoot",
            "outputs": [],
            "stateMutability": "nonpayable",
            "type": "function"
        },
        {
            "inputs": [
                {
                    "internalType": "bytes4",
                    "name": "interfaceId",
                    "type": "bytes4"
                }
            ],
            "name": "supportsInterface",
            "outputs": [
                {
                    "internalType": "bool",
                    "name": "",
                    "type": "bool"
                }
            ],
            "stateMutability": "view",
            "type": "function"
        },
        {
            "inputs": [],
            "name": "symbol",
            "outputs": [
                {
                    "internalType": "string",
                    "name": "",
                    "type": "string"
                }
            ],
            "stateMutability": "view",
            "type": "function"
        },
        {
            "inputs": [
                {
                    "internalType": "uint256",
                    "name": "tokenId",
                    "type": "uint256"
                }
            ],
            "name": "tokenURI",
            "outputs": [
                {
                    "internalType": "string",
                    "name": "",
                    "type": "string"
                }
            ],
            "stateMutability": "view",
            "type": "function"
        },
        {
            "inputs": [],
            "name": "totalCount",
            "outputs": [
                {
                    "internalType": "uint256",
                    "name": "",
                    "type": "uint256"
                }
            ],
            "stateMutability": "pure",
            "type": "function"
        },
        {
            "inputs": [
                {
                    "internalType": "address",
                    "name": "from",
                    "type": "address"
                },
                {
                    "internalType": "address",
                    "name": "to",
                    "type": "address"
                },
                {
                    "internalType": "uint256",
                    "name": "tokenId",
                    "type": "uint256"
                }
            ],
            "name": "transferFrom",
            "outputs": [],
            "stateMutability": "nonpayable",
            "type": "function"
        },
        {
            "inputs": [
                {
                    "internalType": "address",
                    "name": "newOwner",
                    "type": "address"
                }
            ],
            "name": "transferOwnership",
            "outputs": [],
            "stateMutability": "nonpayable",
            "type": "function"
        },
        {
            "inputs": [
                {
                    "internalType": "bytes32",
                    "name": "leaf",
                    "type": "bytes32"
                },
                {
                    "internalType": "bytes32[]",
                    "name": "proof",
                    "type": "bytes32[]"
                }
            ],
            "name": "verifyWhitelist",
            "outputs": [
                {
                    "internalType": "bool",
                    "name": "",
                    "type": "bool"
                }
            ],
            "stateMutability": "view",
            "type": "function"
        },
        {
            "inputs": [],
            "name": "whitelistRoot",
            "outputs": [
                {
                    "internalType": "bytes32",
                    "name": "",
                    "type": "bytes32"
                }
            ],
            "stateMutability": "view",
            "type": "function"
        },
        {
            "inputs": [],
            "name": "withdraw",
            "outputs": [],
            "stateMutability": "nonpayable",
            "type": "function"
        }
    ],
    "bytecode": "608060405260026008556714d1120d7b160000600a556729a2241af62c0000600b553480156200002e57600080fd5b50604080518082018252600d81526c41697244726f70486f7573657360981b6020808301918252835180850190945260038452621414d360ea1b9084015281519192916200007f9160009162000164565b5080516200009590600190602084019062000164565b505050620000b2620000ac6200010e60201b60201c565b62000112565b7f7036c18b7148a5450c499d5c83cf6dac05902701bbbca399f37345095ecf0dcb6009556040805180820190915260088082526768747470733a2f2f60c01b60209092019182526200010791600d9162000164565b5062000246565b3390565b600680546001600160a01b038381166001600160a01b0319831681179093556040519116919082907f8be0079c531659141344cd1fd0a4f28419497f9722a3daafe3b4186f6b6457e090600090a35050565b82805462000172906200020a565b90600052602060002090601f016020900481019282620001965760008555620001e1565b82601f10620001b157805160ff1916838001178555620001e1565b82800160010185558215620001e1579182015b82811115620001e1578251825591602001919060010190620001c4565b50620001ef929150620001f3565b5090565b5b80821115620001ef5760008155600101620001f4565b600181811c908216806200021f57607f821691505b6020821081036200024057634e487b7160e01b600052602260045260246000fd5b50919050565b61212580620002566000396000f3fe6080604052600436106101c25760003560e01c80636352211e116100f7578063a144819411610095578063e985e9c511610064578063e985e9c5146104b2578063f2fde38b146104fb578063f4b372801461051b578063f5aa406d1461053b57600080fd5b8063a144819414610432578063a22cb46514610452578063b88d4fde14610472578063c87b56dd1461049257600080fd5b8063715018a6116100d1578063715018a6146103d55780638da5cb5b146103ea57806395d89b4114610408578063a035b1fe1461041d57600080fd5b80636352211e1461038257806365b31a66146103a257806370a08231146103b557600080fd5b806323b872dd11610164578063386bfc981161013e578063386bfc98146103185780633ccfd60b1461032d57806342842e0e146103425780635b5413c01461036257600080fd5b806323b872dd146102c3578063329ea90d146102e357806334eafb111461030357600080fd5b8063081812fc116101a0578063081812fc14610241578063095ea7b3146102795780630deed6a61461029b5780631aa6fa0b146102b057600080fd5b806301ffc9a7146101c757806306661abd146101fc57806306fdde031461021f575b600080fd5b3480156101d357600080fd5b506101e76101e2366004611aa1565b61055b565b60405190151581526020015b60405180910390f35b34801561020857600080fd5b506102116105ad565b6040519081526020016101f3565b34801561022b57600080fd5b506102346105bd565b6040516101f39190611b16565b34801561024d57600080fd5b5061026161025c366004611b29565b61064f565b6040516001600160a01b0390911681526020016101f3565b34801561028557600080fd5b50610299610294366004611b5e565b6106e9565b005b3480156102a757600080fd5b50600854610211565b6102996102be366004611b5e565b6107fe565b3480156102cf57600080fd5b506102996102de366004611b88565b610934565b3480156102ef57600080fd5b506101e76102fe366004611c8b565b610965565b34801561030f57600080fd5b506103e8610211565b34801561032457600080fd5b50600954610211565b34801561033957600080fd5b50610299610a16565b34801561034e57600080fd5b5061029961035d366004611b88565b610a6f565b34801561036e57600080fd5b5061021161037d366004611b29565b610a8a565b34801561038e57600080fd5b5061026161039d366004611b29565b610b11565b6102996103b0366004611cd2565b610b88565b3480156103c157600080fd5b506102116103d0366004611d29565b610e14565b3480156103e157600080fd5b50610299610e9b565b3480156103f657600080fd5b506006546001600160a01b0316610261565b34801561041457600080fd5b50610234610ed1565b34801561042957600080fd5b50610211610ee0565b34801561043e57600080fd5b5061029961044d366004611b5e565b610fdc565b34801561045e57600080fd5b5061029961046d366004611d44565b611049565b34801561047e57600080fd5b5061029961048d366004611d80565b611058565b34801561049e57600080fd5b506102346104ad366004611b29565b611090565b3480156104be57600080fd5b506101e76104cd366004611e40565b6001600160a01b03918216600090815260056020908152604080832093909416825291909152205460ff1690565b34801561050757600080fd5b50610299610516366004611d29565b61116b565b34801561052757600080fd5b50610299610536366004611b29565b611203565b34801561054757600080fd5b50610299610556366004611b29565b611268565b60006001600160e01b031982166380ac58cd60e01b148061058c57506001600160e01b03198216635b5e139f60e01b145b806105a757506301ffc9a760e01b6001600160e01b03198316145b92915050565b60006105b860075490565b905090565b6060600080546105cc90611e73565b80601f01602080910402602001604051908101604052809291908181526020018280546105f890611e73565b80156106455780601f1061061a57610100808354040283529160200191610645565b820191906000526020600020905b81548152906001019060200180831161062857829003601f168201915b5050505050905090565b6000818152600260205260408120546001600160a01b03166106cd5760405162461bcd60e51b815260206004820152602c60248201527f4552433732313a20617070726f76656420717565727920666f72206e6f6e657860448201526b34b9ba32b73a103a37b5b2b760a11b60648201526084015b60405180910390fd5b506000908152600460205260409020546001600160a01b031690565b60006106f482610b11565b9050806001600160a01b0316836001600160a01b0316036107615760405162461bcd60e51b815260206004820152602160248201527f4552433732313a20617070726f76616c20746f2063757272656e74206f776e656044820152603960f91b60648201526084016106c4565b336001600160a01b038216148061077d575061077d81336104cd565b6107ef5760405162461bcd60e51b815260206004820152603860248201527f4552433732313a20617070726f76652063616c6c6572206973206e6f74206f7760448201527f6e6572206e6f7220617070726f76656420666f7220616c6c000000000000000060648201526084016106c4565b6107f98383611297565b505050565b6008546002146108505760405162461bcd60e51b815260206004820152601f60248201527f5075626c6963206d696e74206973206e6f74207374617274656420796574210060448201526064016106c4565b80610859610ee0565b6108639190611ec3565b3410156108a95760405162461bcd60e51b81526020600482015260146024820152734d6f6e6579206973206e6f7420656e6f7567682160601b60448201526064016106c4565b60005b818110156108ec5760006108bf60075490565b90506108cf600780546001019055565b6108d98482611305565b50806108e481611ee2565b9150506108ac565b50816001600160a01b03167f1f89f147a58d1673945cf416187db98efc8208408c011b91887acd59fd8523c38260405161092891815260200190565b60405180910390a25050565b61093e3382611447565b61095a5760405162461bcd60e51b81526004016106c490611efb565b6107f983838361153e565b600082815b8351811015610a0a57600084828151811061098757610987611f4c565b60200260200101519050808310156109ca5760408051602081018590529081018290526060016040516020818303038152906040528051906020012092506109f7565b60408051602081018390529081018490526060016040516020818303038152906040528051906020012092505b5080610a0281611ee2565b91505061096a565b50600954149392505050565b6006546001600160a01b03163314610a405760405162461bcd60e51b81526004016106c490611f62565b60405133904780156108fc02916000818181858888f19350505050158015610a6c573d6000803e3d6000fd5b50565b6107f983838360405180602001604052806000815250611058565b60006002603c80600c5485610a9f9190611f97565b610aa99190611fc4565b610ab39190611fc4565b11610ac7576007546105a790610258611f97565b6004603c80600c5485610ada9190611f97565b610ae49190611fc4565b610aee9190611fc4565b11610b02576007546105a7906104b0611f97565b6007546105a790610708611f97565b6000818152600260205260408120546001600160a01b0316806105a75760405162461bcd60e51b815260206004820152602960248201527f4552433732313a206f776e657220717565727920666f72206e6f6e657869737460448201526832b73a103a37b5b2b760b91b60648201526084016106c4565b600854600114610bda5760405162461bcd60e51b815260206004820152601860248201527f50726573616c65206973206e6f7420737570706f74656421000000000000000060448201526064016106c4565b615460600c5442610beb9190611f97565b1115610c475760405162461bcd60e51b815260206004820152602560248201527f596f752061726520746f6f206c6174652c2070726573616c652069732066696e6044820152641a5cda195960da1b60648201526084016106c4565b80610c50610ee0565b610c5a9190611ec3565b341015610ca05760405162461bcd60e51b81526020600482015260146024820152734d6f6e6579206973206e6f7420656e6f7567682160601b60448201526064016106c4565b80610caa42610a8a565b1015610cf85760405162461bcd60e51b815260206004820181905260248201527f5468657265206172656e277420656e6f756768206e66747320666f7220796f7560448201526064016106c4565b6000610d46610d40856040516bffffffffffffffffffffffff19606083901b166020820152600090603401604051602081830303815290604052805190602001209050919050565b84610965565b905080610d875760405162461bcd60e51b815260206004820152600f60248201526e139bdd081dda1a5d195b1a5cdd1959608a1b60448201526064016106c4565b60005b82811015610dca576000610d9d60075490565b9050610dad600780546001019055565b610db78682611305565b5080610dc281611ee2565b915050610d8a565b50836001600160a01b03167f1f89f147a58d1673945cf416187db98efc8208408c011b91887acd59fd8523c383604051610e0691815260200190565b60405180910390a250505050565b60006001600160a01b038216610e7f5760405162461bcd60e51b815260206004820152602a60248201527f4552433732313a2062616c616e636520717565727920666f7220746865207a65604482015269726f206164647265737360b01b60648201526084016106c4565b506001600160a01b031660009081526003602052604090205490565b6006546001600160a01b03163314610ec55760405162461bcd60e51b81526004016106c490611f62565b610ecf60006116da565b565b6060600180546105cc90611e73565b6000600854600203610ef35750600b5490565b6002603c80600c5442610f069190611f97565b610f109190611fc4565b610f1a9190611fc4565b11610f5457610258610f2b60075490565b610f3d906706f05b59d3b20000611ec3565b610f479190611fc4565b600a546105b89190611fd8565b6004603c80600c5442610f679190611f97565b610f719190611fc4565b610f7b9190611fc4565b11610fc7576104b0610f8c60075490565b610f9e906706f05b59d3b20000611ec3565b610fa89190611fc4565b600a54610fbd906706f05b59d3b20000611fd8565b6105b89190611fd8565b600a546105b890670de0b6b3a7640000611fd8565b6006546001600160a01b031633146110065760405162461bcd60e51b81526004016106c490611f62565b60005b818110156108ec57600061101c60075490565b905061102c600780546001019055565b611036848261172c565b508061104181611ee2565b915050611009565b611054338383611746565b5050565b6110623383611447565b61107e5760405162461bcd60e51b81526004016106c490611efb565b61108a84848484611814565b50505050565b6000818152600260205260409020546060906001600160a01b031661110f5760405162461bcd60e51b815260206004820152602f60248201527f4552433732314d657461646174613a2055524920717565727920666f72206e6f60448201526e3732bc34b9ba32b73a103a37b5b2b760891b60648201526084016106c4565b6000611119611847565b905060008151116111395760405180602001604052806000815250611164565b8061114384611856565b604051602001611154929190611ff0565b6040516020818303038152906040525b9392505050565b6006546001600160a01b031633146111955760405162461bcd60e51b81526004016106c490611f62565b6001600160a01b0381166111fa5760405162461bcd60e51b815260206004820152602660248201527f4f776e61626c653a206e6577206f776e657220697320746865207a65726f206160448201526564647265737360d01b60648201526084016106c4565b610a6c816116da565b6006546001600160a01b0316331461122d5760405162461bcd60e51b81526004016106c490611f62565b60088190556040518181527fd65d4a668c1025fe2ffcb25e01ecbe14387a9cfdfb530b7711ffb14dd74904de9060200160405180910390a150565b6006546001600160a01b031633146112925760405162461bcd60e51b81526004016106c490611f62565b600955565b600081815260046020526040902080546001600160a01b0319166001600160a01b03841690811790915581906112cc82610b11565b6001600160a01b03167f8c5be1e5ebec7d5bd14f71427d1e84f3dd0314c0f7b2291e5b200ac8c7c3b92560405160405180910390a45050565b6001600160a01b03821661135b5760405162461bcd60e51b815260206004820181905260248201527f4552433732313a206d696e7420746f20746865207a65726f206164647265737360448201526064016106c4565b6000818152600260205260409020546001600160a01b0316156113c05760405162461bcd60e51b815260206004820152601c60248201527f4552433732313a20746f6b656e20616c7265616479206d696e7465640000000060448201526064016106c4565b6001600160a01b03821660009081526003602052604081208054600192906113e9908490611fd8565b909155505060008181526002602052604080822080546001600160a01b0319166001600160a01b03861690811790915590518392907fddf252ad1be2c89b69c2b068fc378daa952ba7f163c4a11628f55a4df523b3ef908290a45050565b6000818152600260205260408120546001600160a01b03166114c05760405162461bcd60e51b815260206004820152602c60248201527f4552433732313a206f70657261746f7220717565727920666f72206e6f6e657860448201526b34b9ba32b73a103a37b5b2b760a11b60648201526084016106c4565b60006114cb83610b11565b9050806001600160a01b0316846001600160a01b031614806115065750836001600160a01b03166114fb8461064f565b6001600160a01b0316145b8061153657506001600160a01b0380821660009081526005602090815260408083209388168352929052205460ff165b949350505050565b826001600160a01b031661155182610b11565b6001600160a01b0316146115b55760405162461bcd60e51b815260206004820152602560248201527f4552433732313a207472616e736665722066726f6d20696e636f72726563742060448201526437bbb732b960d91b60648201526084016106c4565b6001600160a01b0382166116175760405162461bcd60e51b8152602060048201526024808201527f4552433732313a207472616e7366657220746f20746865207a65726f206164646044820152637265737360e01b60648201526084016106c4565b611622600082611297565b6001600160a01b038316600090815260036020526040812080546001929061164b908490611f97565b90915550506001600160a01b0382166000908152600360205260408120805460019290611679908490611fd8565b909155505060008181526002602052604080822080546001600160a01b0319166001600160a01b0386811691821790925591518493918716917fddf252ad1be2c89b69c2b068fc378daa952ba7f163c4a11628f55a4df523b3ef91a4505050565b600680546001600160a01b038381166001600160a01b0319831681179093556040519116919082907f8be0079c531659141344cd1fd0a4f28419497f9722a3daafe3b4186f6b6457e090600090a35050565b611054828260405180602001604052806000815250611957565b816001600160a01b0316836001600160a01b0316036117a75760405162461bcd60e51b815260206004820152601960248201527f4552433732313a20617070726f766520746f2063616c6c65720000000000000060448201526064016106c4565b6001600160a01b03838116600081815260056020908152604080832094871680845294825291829020805460ff191686151590811790915591519182527f17307eab39ab6107e8899845ad3d59bd9653f200f220920489ca2b5937696c31910160405180910390a3505050565b61181f84848461153e565b61182b8484848461198a565b61108a5760405162461bcd60e51b81526004016106c49061202f565b6060600d80546105cc90611e73565b60608160000361187d5750506040805180820190915260018152600360fc1b602082015290565b8160005b81156118a7578061189181611ee2565b91506118a09050600a83611fc4565b9150611881565b60008167ffffffffffffffff8111156118c2576118c2611bc4565b6040519080825280601f01601f1916602001820160405280156118ec576020820181803683370190505b5090505b841561153657611901600183611f97565b915061190e600a86612081565b611919906030611fd8565b60f81b81838151811061192e5761192e611f4c565b60200101906001600160f81b031916908160001a905350611950600a86611fc4565b94506118f0565b6119618383611305565b61196e600084848461198a565b6107f95760405162461bcd60e51b81526004016106c49061202f565b60006001600160a01b0384163b15611a8057604051630a85bd0160e11b81526001600160a01b0385169063150b7a02906119ce903390899088908890600401612095565b6020604051808303816000875af1925050508015611a09575060408051601f3d908101601f19168201909252611a06918101906120d2565b60015b611a66573d808015611a37576040519150601f19603f3d011682016040523d82523d6000602084013e611a3c565b606091505b508051600003611a5e5760405162461bcd60e51b81526004016106c49061202f565b805181602001fd5b6001600160e01b031916630a85bd0160e11b149050611536565b506001949350505050565b6001600160e01b031981168114610a6c57600080fd5b600060208284031215611ab357600080fd5b813561116481611a8b565b60005b83811015611ad9578181015183820152602001611ac1565b8381111561108a5750506000910152565b60008151808452611b02816020860160208601611abe565b601f01601f19169290920160200192915050565b6020815260006111646020830184611aea565b600060208284031215611b3b57600080fd5b5035919050565b80356001600160a01b0381168114611b5957600080fd5b919050565b60008060408385031215611b7157600080fd5b611b7a83611b42565b946020939093013593505050565b600080600060608486031215611b9d57600080fd5b611ba684611b42565b9250611bb460208501611b42565b9150604084013590509250925092565b634e487b7160e01b600052604160045260246000fd5b604051601f8201601f1916810167ffffffffffffffff81118282101715611c0357611c03611bc4565b604052919050565b600082601f830112611c1c57600080fd5b8135602067ffffffffffffffff821115611c3857611c38611bc4565b8160051b611c47828201611bda565b9283528481018201928281019087851115611c6157600080fd5b83870192505b84831015611c8057823582529183019190830190611c67565b979650505050505050565b60008060408385031215611c9e57600080fd5b82359150602083013567ffffffffffffffff811115611cbc57600080fd5b611cc885828601611c0b565b9150509250929050565b600080600060608486031215611ce757600080fd5b611cf084611b42565b9250602084013567ffffffffffffffff811115611d0c57600080fd5b611d1886828701611c0b565b925050604084013590509250925092565b600060208284031215611d3b57600080fd5b61116482611b42565b60008060408385031215611d5757600080fd5b611d6083611b42565b915060208301358015158114611d7557600080fd5b809150509250929050565b60008060008060808587031215611d9657600080fd5b611d9f85611b42565b93506020611dae818701611b42565b935060408601359250606086013567ffffffffffffffff80821115611dd257600080fd5b818801915088601f830112611de657600080fd5b813581811115611df857611df8611bc4565b611e0a601f8201601f19168501611bda565b91508082528984828501011115611e2057600080fd5b808484018584013760008482840101525080935050505092959194509250565b60008060408385031215611e5357600080fd5b611e5c83611b42565b9150611e6a60208401611b42565b90509250929050565b600181811c90821680611e8757607f821691505b602082108103611ea757634e487b7160e01b600052602260045260246000fd5b50919050565b634e487b7160e01b600052601160045260246000fd5b6000816000190483118215151615611edd57611edd611ead565b500290565b600060018201611ef457611ef4611ead565b5060010190565b60208082526031908201527f4552433732313a207472616e736665722063616c6c6572206973206e6f74206f6040820152701ddb995c881b9bdc88185c1c1c9bdd9959607a1b606082015260800190565b634e487b7160e01b600052603260045260246000fd5b6020808252818101527f4f776e61626c653a2063616c6c6572206973206e6f7420746865206f776e6572604082015260600190565b600082821015611fa957611fa9611ead565b500390565b634e487b7160e01b600052601260045260246000fd5b600082611fd357611fd3611fae565b500490565b60008219821115611feb57611feb611ead565b500190565b60008351612002818460208801611abe565b835190830190612016818360208801611abe565b64173539b7b760d91b9101908152600501949350505050565b60208082526032908201527f4552433732313a207472616e7366657220746f206e6f6e20455243373231526560408201527131b2b4bb32b91034b6b83632b6b2b73a32b960711b606082015260800190565b60008261209057612090611fae565b500690565b6001600160a01b03858116825284166020820152604081018390526080606082018190526000906120c890830184611aea565b9695505050505050565b6000602082840312156120e457600080fd5b815161116481611a8b56fea2646970667358221220d1263bf4b28de78d1b68ea2a1ff52c5b5d7f57312c7595a36bdb1abaefc0c5e664736f6c634300080d0033",
    "sourcePath": "d:/Development/Air-Drop-Houses-Contract/contracts/AirdropHouses.sol",
    "compiler": {
        "name": "solc",
        "version": "0.8.13+commit.abaa5c0e"
    },
    "functionHashes": {
        "approve(address,uint256)": "095ea7b3",
        "balanceOf(address)": "70a08231",
        "count()": "06661abd",
        "getApproved(uint256)": "081812fc",
        "getLeftPresale(uint256)": "5b5413c0",
        "isApprovedForAll(address,address)": "e985e9c5",
        "name()": "06fdde03",
        "owner()": "8da5cb5b",
        "ownerOf(uint256)": "6352211e",
        "payToMint(address,uint256)": "1aa6fa0b",
        "payToWhiteMint(address,bytes32[],uint256)": "65b31a66",
        "price()": "a035b1fe",
        "renounceOwnership()": "715018a6",
        "safeMint(address,uint256)": "a1448194",
        "safeTransferFrom(address,address,uint256)": "42842e0e",
        "safeTransferFrom(address,address,uint256,bytes)": "b88d4fde",
        "saleMode()": "0deed6a6",
        "setApprovalForAll(address,bool)": "a22cb465",
        "setWhiteListMode(uint256)": "f4b37280",
        "setWhitelistRoot(bytes32)": "f5aa406d",
        "supportsInterface(bytes4)": "01ffc9a7",
        "symbol()": "95d89b41",
        "tokenURI(uint256)": "c87b56dd",
        "totalCount()": "34eafb11",
        "transferFrom(address,address,uint256)": "23b872dd",
        "transferOwnership(address)": "f2fde38b",
        "verifyWhitelist(bytes32,bytes32[])": "329ea90d",
        "whitelistRoot()": "386bfc98",
        "withdraw()": "3ccfd60b"
    },
    "gasEstimates": {
        "creation": {
            "codeDepositCost": "1697000",
            "executionCost": "infinite",
            "totalCost": "infinite"
        },
        "external": {
            "approve(address,uint256)": "infinite",
            "balanceOf(address)": "2679",
            "count()": "2399",
            "getApproved(uint256)": "4738",
            "getLeftPresale(uint256)": "infinite",
            "isApprovedForAll(address,address)": "infinite",
            "name()": "infinite",
            "owner()": "2398",
            "ownerOf(uint256)": "2602",
            "payToMint(address,uint256)": "infinite",
            "payToWhiteMint(address,bytes32[],uint256)": "infinite",
            "price()": "infinite",
            "renounceOwnership()": "28162",
            "safeMint(address,uint256)": "infinite",
            "safeTransferFrom(address,address,uint256)": "infinite",
            "safeTransferFrom(address,address,uint256,bytes)": "infinite",
            "saleMode()": "2382",
            "setApprovalForAll(address,bool)": "26750",
            "setWhiteListMode(uint256)": "25617",
            "setWhitelistRoot(bytes32)": "24574",
            "supportsInterface(bytes4)": "557",
            "symbol()": "infinite",
            "tokenURI(uint256)": "infinite",
            "totalCount()": "282",
            "transferFrom(address,address,uint256)": "infinite",
            "transferOwnership(address)": "28378",
            "verifyWhitelist(bytes32,bytes32[])": "infinite",
            "whitelistRoot()": "2337",
            "withdraw()": "infinite"
        },
        "internal": {
            "_baseURI()": "infinite",
            "_burn(uint256)": "infinite",
            "_leaf(address)": "infinite"
        }
    }
}